:100000000C9460010C9488010C9488010C94880174
:100010000C9488010C9488010C9488010C9488013C
:100020000C9488010C9488010C9421080C94EF0620
:100030000C9488010C9488010C9488010C9488011C
:100040000C9488010C9488010C9488010C9488010C
:100050000C9488010C9488010C9488010C94D901AB
:100060000C9488010C9488010C9488010C948801EC
:100070000C9488010C9488010C9488010C948801DC
:100080000C9488010C9488010C9488010C948801CC
:100090000C9488010C9488010C9488010C948801BC
:1000A0000C9488010C9488010C94880100000002D3
:1000B00000080E0000030401000B00000408020108
:1000C00010408040102040804080080204018040A1
:1000D0002010020110801020404004040404040396
:1000E00004050202020204030202020206060606D8
:1000F0000606040402020204000000002500280095
:100100002B002E00310000000000240027002A00F0
:100110002D003000080B000202020100090400005B
:100120000102020000052400100105240101010460
:10013000240206052406000107058103100040097A
:10014000040100020A000000070502024000000747
:1001500005830240000000C18081C112010002023B
:10016000000040412336800001010200011201001D
:100170000200000040412336800001010200011806
:1001800003410072006400750069006E006F00207A
:10019000004C004C004300220341007200640075D3
:1001A0000069006E006F0020004C0065006F006E5B
:1001B000006100720064006F000403090400000085
:1001C00000000000002A2B280000000000000000B2
:1001D000000000000000000000000000002C9EB4A1
:1001E000A0A1A2A434A6A7A5AE362D3738271E1F7E
:1001F00020212223242526B333B62EB7B89F848529
:10020000868788898A8B8C8D8E8F90919293949516
:10021000969798999A9B9C9D2F3130A3AD350405F4
:10022000060708090A0B0C0D0E0F101112131415F6
:10023000161718191A1B1C1DAFB1B0B5000904021E
:1002400000010300000009210101000122650007EF
:1002500005840340000105010902A1010901A10073
:10026000850105091901290315002501950375016B
:1002700081029501750581030501093009310938AD
:100280001581257F750895038106C0C00501090603
:10029000A1018502050719E029E71500250175016F
:1002A000950881029501750881039506750815006A
:1002B00025650507190029658100C0001C05D609C0
:1002C00011241FBECFEFDAE0DEBFCDBF11E0A0E00A
:1002D000B1E0E6EDF3E102C005900D92AC34B10758
:1002E000D9F711E0ACE4B1E001C01D92AF3BB1071A
:1002F000E1F712E0C0ECD2E004C02297FE010E94B8
:10030000E509CC3BD107C9F70E9405040C94E90923
:100310000C94000060E875E287E591E00E940C050E
:1003200087E591E00E940D058823D1F361E08DE01F
:100330000C942D0361E08DE00E94650360914C01F7
:1003400070914D01882777FD8095982F0E944D026E
:1003500060E08DE00E94650360914C0170914D0159
:10036000882777FD8095982F0C944D0287E591E0C2
:100370000E941604892BA9F087E591E00E943C04B5
:10038000992787FD9095C0978A30910550F444E6EF
:10039000489F9001499F300D112430934D012093C7
:1003A0004C016AE071E087E591E00E94F1030C9452
:1003B0009A011F920F920FB60F9211242F933F9321
:1003C0008F939F93AF93BF9380914E0190914F0174
:1003D000A0915001B091510130915601232F2D5F12
:1003E0002D3720F40196A11DB11D05C0232F2A57DA
:1003F0000296A11DB11D2093560180934E0190934A
:100400004F01A0935001B0935101809152019091FE
:100410005301A0915401B09155010196A11DB11D48
:100420008093520190935301A0935401B0935501CE
:10043000BF91AF919F918F913F912F910F900FBEE0
:100440000F901F9018950F931F939FB7F8940091EA
:10045000520110915301209154013091550186B5FC
:10046000A89B06C08F3F21F00F5F1F4F2F4F3F4FBC
:100470009FBF322F212F102F0027080F111D211D84
:10048000311D42E0000F111F221F331F4A95D1F783
:10049000B801C9011F910F910895CF92DF92EF9299
:1004A000FF92CF93DF936B017C010E942302EB014B
:1004B0000EC00E9423026C1B7D0B683E734038F017
:1004C00081E0C81AD108E108F108C851DC4FC11415
:1004D000D104E104F10469F7DF91CF91FF90EF902F
:1004E000DF90CF900895789484B5826084BD84B500
:1004F000816084BD85B5826085BD85B5816085BD1F
:10050000EEE6F0E0808181608083E1E8F0E0108237
:10051000808182608083808181608083E0E8F0E078
:10052000808181608083E1EBF0E080818460808362
:10053000E0EBF0E0808181608083E1E9F0E08081A0
:1005400082608083808181608083E0E9F0E0808147
:1005500081608083E1ECF0E0808184608083808131
:1005600082608083808181608083E3ECF0E0808121
:1005700081608083E0ECF0E0808182608083E2EC47
:10058000F0E0808181608083EAE7F0E08081846030
:10059000808380818260808380818160808380818C
:1005A0008068808308958730A1F178F48330E1F08A
:1005B00030F4813019F1823009F04EC022C084300D
:1005C000B9F0863009F048C020C08A3081F130F49B
:1005D000883029F1893009F03FC025C08C3089F17D
:1005E00060F18E30C9F533C0809180008F7703C0F1
:1005F000809180008F7D80938000089584B58F77EF
:1006000002C084B58F7D84BD08958091B0008F773E
:1006100003C08091B0008F7D8093B00008958091D9
:1006200090008F7707C0809190008F7D03C08091EC
:100630009000877F8093900008958091C0008F770D
:1006400003C08091C0008F7D8093C0000895809189
:10065000C200877F8093C2000895CF93DF9390E01C
:10066000FC01E454FF4F4491FC01E652FF4F84919A
:10067000882341F190E0880F991FFC01EA5FFE4F4B
:1006800025913491D90188509F4FFC018591949117
:10069000C82FD92F9FB7F8948C91611106C040954F
:1006A00084238C938881842308C0623041F4242FF2
:1006B000209582238C938881842B888302C0842B8D
:1006C0008C939FBFDF91CF9108950F931F93CF938A
:1006D000DF931F92CDB7DEB7282F30E0F901E45544
:1006E000FF4F8491F901E454FF4F1491F901E65250
:1006F000FF4F04910023D1F0882321F069830E94E9
:10070000D3026981E02FF0E0EE0FFF1FE850FF4FAA
:1007100085919491DC019FB7F8948C91611103C08D
:100720001095812301C0812B8C939FBF0F90DF9187
:10073000CF911F910F910895CF92DF92EF92FF9288
:100740000F931F93CF93DF936C01EB017A01E60EB9
:10075000F71E00E010E00BC06991D601ED91FC910D
:100760000190F081E02DC6010995080F191FCE15E3
:10077000DF0591F7C801DF91CF911F910F91FF9095
:10078000EF90DF90CF900895DB010D900020E9F706
:10079000AD0141505109461B570BDC01ED91FC9115
:1007A0000280F381E02D0994DC01ED91FC91019030
:1007B000F081E02D09940F931F93CF93DF93EC0109
:1007C0006DE00E94D4038C016AE0CE010E94D40344
:1007D0009C01200F311FC901DF91CF911F910F9113
:1007E00008950F931F93CF93DF93EC010E94C403EE
:1007F0008C01CE010E94DB039801280F391FC9012B
:10080000DF91CF911F910F9108950E94730289EAA1
:1008100091E00E9481080E948A01C0E0D0E00E941D
:10082000B6012097E1F30E940000F9CF2091A501C5
:100830003091A6018091A7019091A801281B390B46
:100840002F733327C90108952091A5013091A60186
:100850008091A7019091A8012817390749F0E091EC
:10086000A701F091A801EB59FE4F208130E002C0B2
:100870002FEF3FEFC90108952091A5013091A60106
:100880008091A7019091A80128173907B1F0E09154
:10089000A701F091A801EB59FE4F80812091A7019B
:1008A0003091A8012F5F3F4F2F7333273093A8015A
:1008B0002093A701282F30E002C02FEF3FEFC9019E
:1008C00008950F931F93CF93DF931F92CDB7DEB799
:1008D0008C01698380910701882369F041E050E031
:1008E000BE016F5F7F4F83E00E94D3051816190683
:1008F00014F49C0107C081E090E0F80193838283A7
:1009000020E030E0C9010F90DF91CF911F910F914E
:10091000089583E00C94170882E00E94A1052091BD
:10092000A5013091A6012F5F3F4F2F7333274091D0
:10093000A7015091A8012417350759F0E091A501AE
:10094000F091A601EB59FE4F80833093A6012093CE
:10095000A5010895FC0120812E5F208342E450E030
:1009600064E171E080E80C946E06FC018181908165
:10097000913A59F4813209F04BC047E050E060E011
:1009800071E080E00E946E0645C0913209F040C0DF
:10099000803239F467E070E080E091E00E94C106A7
:1009A00039C0823209F034C082818093070180917E
:1009B000000190910101A0910201B0910301803BDF
:1009C0009440A105B10531F58091070180FD12C069
:1009D00087E797E790930108809300082BE088E170
:1009E00090E00FB6F894A895809360000FBE209316
:1009F000600010C088E10FB6F894809360001092F8
:100A000060000FBEA895109201081092000802C065
:100A100080E0089581E008950895CF93C091070183
:100A20006AE070E080E090E00E944D0281E0C11138
:100A300001C080E0CF91089510925A01109259019F
:100A400088EE93E0A0E0B0E080935B0190935C01BE
:100A5000A0935D01B0935E0180E391E09093580113
:100A600080935701089505C02091F100FC01219366
:100A7000CF016150C8F7289884E68093B0010895AB
:100A80002FB7FC012083F89467706093E900089504
:100A9000CF93DF931F92CDB7DEB7682FCE010196BB
:100AA0000E9440058091F20099819FBF0F90DF91D5
:100AB000CF910895FF920F931F93CF93DF9300D0B0
:100AC000CDB7DEB7F62E8A019091AF019923A9F038
:100AD00057FF16C012C028988093B0019091F10082
:100AE0009193FE12F8CF4115510521F08091F2004B
:100AF0008823D1F089818FBF1BC04FEF5FEF18C0F3
:100B0000682FCE0101967A830E9440058091F20001
:100B100090E0A8017A81801791070CF4AC01EF2DC9
:100B2000F72FF40E84E6DDCF8BE68093E800E2CF6A
:100B3000CA010F900F90DF91CF911F910F91FF90FD
:100B40000895CF93DF931F92CDB7DEB741E050E019
:100B5000BE016F5F7F4F0E945A05019719F42981EA
:100B600030E002C02FEF3FEFC9010F90DF91CF912E
:100B70000895CF93DF931F92CDB7DEB7682FCE01D4
:100B800001960E9440058091E80085FF05C0909184
:100B9000F20080E4891B01C080E099819FBF0F9023
:100BA000DF91CF9108956F927F928F929F92AF9233
:100BB000BF92CF92DF92EF92FF920F931F93CF934A
:100BC000DF931F92CDB7DEB7782EC42EB52E80915D
:100BD000AF0181114CC02FEF3FEF64C0872D0E9401
:100BE000B905682E811109C0DA94A9F361E070E0BB
:100BF00080E090E00E944D0247C0282F30E00217AD
:100C000013070CF4602E06191109672DCE01019609
:100C10000E944005992041F002C01092F1006A94B0
:100C20008FEF6812FACF17C0862D77FC02C0F7014C
:100C30000EC0970106C0F9012F5F3F4FE491E0938A
:100C4000F1008150C0F705C091919093F10081505F
:100C5000D8F7E60CF11C8091E80085FF20C0011553
:100C6000110511F481101BC089818FBF0DC07B015C
:100C7000042F152F8AEFD82E90E2992E97202AE381
:100C8000A22E30E4832E87200115110509F0A6CF8E
:100C90005D9884E68093B1012C2D3B2D03C0A0927A
:100CA000E800E2CFC9010F90DF91CF911F910F9122
:100CB000FF90EF90DF90CF90BF90AF909F908F907C
:100CC0007F906F9008951092E9001092AE011092FB
:100CD000AD019093AC018093AB010895FF920F9307
:100CE0001F93CF93DF93C42FD52FDB0160E070E01B
:100CF000EEEFFE2E38C09D012F5F3F4F87FF04C0EF
:100D0000FD01D901E49102C0EC91D9010091AD013E
:100D10001091AE012091AB013091AC010217130785
:100D2000B4F49091E8009570E1F39091E80092FDA1
:100D30001FC0E093F1002091AD013091AE012F5F13
:100D40003F4F2F733327232B11F4F092E8002091AB
:100D5000AD013091AE012F5F3F4F3093AE01209334
:100D6000AD016F5F7F4F6C177D0729F69A0102C0B6
:100D70002FEF3FEFC901DF91CF911F910F91FF90AE
:100D800008951F93CF93DF931F92CDB7DEB7162F31
:100D90002091E80022FFFCCF612F79830E94330568
:100DA0008BEF8093E800812F7981972F0F90DF914F
:100DB000CF911F910895CF93DF931F92CDB7DEB7E8
:100DC0001982CE0101960E94AA04CE0101960E94CA
:100DD000BE08898190E00F90DF91CF9108951F9216
:100DE0000F920FB60F921124EF92FF920F931F9361
:100DF0002F933F934F935F936F937F938F939F9323
:100E0000AF93BF93EF93FF93CF93DF93CDB7DEB74D
:100E10006297DEBFCDBF1092E9008091E80083FFAA
:100E2000E9C068E0CE010A960E94330582EF809304
:100E3000E8009A8597FF05C08091E80080FFFCCF0D
:100E400003C08EEF8093E800892F807609F0B7C049
:100E50008B85811105C01092F1001092F100C3C082
:100E6000813009F4C0C0833009F4BDC0853049F435
:100E70008091E80080FFFCCF8C8580688093E30040
:100E8000B2C0863009F073C02D85E888F988223019
:100E900071F580E090E02A8B0E9463060E94DB06D9
:100EA00099E08E010F5F1F4FF801392F11923A958B
:100EB000E9F799832A892A8391E09E8390E89887AD
:100EC0009AEF99872091AD013091AE01275F3F4F96
:100ED0003C832B838D83C7010E94630649E050E069
:100EE000B80180E00E946E060E94DB067CC0C7014C
:100EF0002A8B0E9463062A89223241F482E290E022
:100F00000E94C908892B09F06EC071C0213071F4AC
:100F100088899989089719F481E08093AA018091C2
:100F2000AA01882389F06BE571E016C0233009F02F
:100F30005EC08C85882359F0823061F0813009F0E1
:100F400056C06FE771E008C06DE671E005C069EB5F
:100F500071E002C067E971E06115710509F447C0ED
:100F6000FB01449150E080E80E946E063CC087304F
:100F700009F43DC0883021F481E08093F10033C052
:100F8000893089F5937099F5E7E5F1E081E021E09A
:100F900096E38093E9002093EB0034913093EC00CA
:100FA0009093ED008F5F3196853099F78EE78093AF
:100FB000EA001092EA008C858093AF0114C0888902
:100FC00099890E9463068E85811105C0CE010A961B
:100FD0000E94B50406C0823051F4CE010A960E94E8
:100FE000F108882321F08EEF8093E80003C081E2AE
:100FF0008093EB0062960FB6F894DEBF0FBECDBFB4
:10100000DF91CF91FF91EF91BF91AF919F918F9120
:101010007F916F915F914F913F912F911F910F9110
:10102000FF90EF900F900FBE0F901F901895809338
:10103000E9008091F200882319F08AE38093E800A8
:1010400008951F920F920FB60F9211242F933F9382
:101050004F935F936F937F938F939F93AF93BF93C0
:10106000EF93FF938091E1001092E10083FF0FC0A6
:101070001092E90091E09093EB001092EC0092E363
:101080009093ED001092AF0198E09093F00082FFF2
:1010900027C083E00E94170804C087E591E00E9402
:1010A0008C0482E00E9448058111F7CF8091B10144
:1010B000882339F08091B10181508093B101882358
:1010C00061F08091B001882359F08091B001815086
:1010D0008093B001882319F003C05D9AF2CF289A5B
:1010E000FF91EF91BF91AF919F918F917F916F9100
:1010F0005F914F913F912F910F900FBE0F901F90D6
:1011000018951092AF0181E08093D70080EA809318
:10111000D80082E189BD09B400FEFDCF61E070E036
:1011200080E090E00E944D0280E98093D8008CE03E
:101130008093E2001092E000559A209A0895FF9261
:101140000F931F93CF93DF93EC01F62EE881F98183
:101150000480F581E02D09958C01E881F9810680F4
:10116000F781E02D6F2DCE01099598013327C90134
:10117000DF91CF911F910F91FF900895FC01208185
:101180002F5F208349E150E06DE372E080E80C942A
:101190006E0645E650E066E572E080E80C946E0667
:1011A000EF92FF920F931F93CF93DF931F92CDB7D0
:1011B000DEB789838B017A0141E050E0BE016F5FA9
:1011C0007F4F84E00E94D305A701B80184E40E9408
:1011D000D3050F90DF91CF911F910F91FF90EF906A
:1011E0000895FC0191818081813A31F481E0913050
:1011F00091F0933091F010C0813271F49B3021F462
:1012000082818093090105C09A3031F482818093F4
:10121000080181E00895089580E0089548E050E0D5
:1012200082E00C94D008FC01168217821086118689
:10123000128613861482BC016C5F7F4F0C940E09DA
:10124000E62F683810F0E85824C0F0E067FF12C0BD
:10125000E058F10921E030E001C0220FEA95EAF7F9
:101260002095DC0114963C911497322314963C93FC
:10127000E0E00FC0E354FE4FE491EE2329F1E7FFD5
:1012800008C0DC0114962C9114972D7F14962C9392
:10129000EF7720E030E0EE2351F0DC01A20FB31F26
:1012A00016964C9116974E1302C016961C922F5FFD
:1012B0003F4F2630310579F7BC016C5F7F4F0E94AC
:1012C0000E0921E030E002C020E030E0C9010895BD
:1012D000CF93DF93DC01E62F683810F0E85824C084
:1012E000F0E067FF11C0E058F10981E090E001C033
:1012F000880FEA95EAF714969C911497982B149608
:101300009C931497E0E010C0E354FE4FE491E11188
:1013100001C040C0E7FF08C014968C91149782600A
:1013200014968C931497EF7716968C9116978E17C8
:1013300041F117968C9117978E1719F118968C9189
:1013400018978E17F1F019968C9119978E17C9F08E
:101350001A968C911A978E17A1F01B968C911B9759
:101360008E1779F080E090E0ED01C80FD91F2E8133
:10137000211102C0EE8305C0019686309105A1F7C8
:1013800009C0BD016C5F7F4FCD010E940E0921E0B5
:1013900030E008C081E090E013969C938E93129702
:1013A00020E030E0C901DF91CF9108951092BE0195
:1013B0001092B5011092B40182E491E09093B301D0
:1013C0008093B2010895EE0FFF1F0590F491E02D78
:0613D0000994F894FFCF20
:1013D60000E100000000000001017B2261223A22A8
:1013E60031222C2262223A2230222C2263223A22F5
:1013F60031222C2264223A2231227D000000000094
:1014060061049C0316043C04240489048C04000033
:0C14160000009F089C03680920091309CE
:00000001FF
